8=FIX.4.2|9=145|35=D|34=4|49=ABC_DEFG01|52=20090323-15:40:29|56=CCG|115=XYZ|11=NF 0542/03232009|54=1|38=100|55=CVS|40=1|59=0|47=A|60=20090323-15:40:29|21=1|207=N|10=139|
8=FIX.4.2|9=226|35=8|128=XYZ|34=4|49=CCG|56=ABC_DEFG01|52=20090323-15:40:35|55=CVS|37=NF 0542/03232009|11=NF 0542/03232009|17=0|20=0|39=0|150=0|54=1|38=100|40=1|59=0|31=0|32=0|14=0|6=0|151=100|60=20090323-15:40:30|58=New order|30=N|207=N|47=A|10=149|
8=FIX.4.2|9=156|35=D|34=124|49=ABC_DEFG04|52=20100208-18:51:42|56=CCG|115=XYZ|11=NF 0015/02082010|54=2|38=1000|55=RRC|40=2|44=55.36|59=0|1=ABC123ZYX|21=1|207=N|47=A|9487=CO|10=050|
8=FIX.4.2|9=253|35=8|128=XYZ|34=124|49=CCG|56=ABC_DEFG04|52=20100208-18:51:42|55=RRC|37=NF 0015/02082010|11=NF 0015/02082010|17=0|20=0|39=0|150=0|54=2|38=1000|40=2|44=55.3600|59=0|31=0|32=0|14=0|6=0|151=1000|60=20100208-18:51:42|58=New order|30=N|1=ABC123ZYX|207=N|47=A|10=037|
8=FIX.4.2|9=153|35=D|34=11|49=ABC_DEFG04|52=20091216-17:23:52|56=CCG|57=ARCA|115=XYZ|128=MP|11=NF 0921/12162009|54=2|38=1000|55=MMM|40=1|59=0|1=ABC123ZYX|21=1|207=N|47=A|10=172|